:020000041000EA
:1000000000B5324B212058609868022188439860DF
:10001000D860186158612E4B002199600421596104
:100020000121F02299502B49196001219960352056
:1000300000F044F80222904214D00621196600F024
:1000400034F8196E01211966002018661A6600F04E
:100050002CF8196E196E196E052000F02FF8012189
:100060000842F9D1002199601B49196000215960AB
:100070001A491B48016001219960EB211966A021F2
:10008000196600F012F800219960164914480160C1
:100090000121996001BC002800D000471248134993
:1000A000086003C880F30888084703B5996A0420EC
:1000B0000142FBD001200142F8D103BD02B5186610
:1000C0001866FFF7F2FF186E186E02BD00000240BE
:1000D000000000180000070000035F00212200005C
:1000E000F4000018222000A00001001008ED00E03C
:1000F000000000000000000000000000070B8FD58A
:1001000000040420C5020010FD5B0010C7020010AF
:10011000C7020010C7020010C7020010C70200107B
:10012000C7020010C7020010C7020010C70200106B
:10013000C7020010C7020010C7020010C70200105B
:10014000155B0010F15A0010C95A0010A15A001096
:10015000C7020010255C0010C702001079A500102E
:10016000C7020010C7020010C70200106D5B00102C
:10017000395B0010C7020010C7020010DD5B0010E1
:10018000A15B0010C7020010C7020010C7020010D8
:10019000C7020010C7020010C7020010C7020010FB
:1001A000CD5E0010C7020010C7020010C702001089
:1001B000C7020010C7020010C7020010C7020010DB
:1001C00072B62C4880F308882B4880F309880220F7
:1001D00080F31488BFF36F8F28482949086005F021
:1001E000AAFA08F07AFE27482749224A914202DA01
:1001F00008600431FAE725491F4A914202DA086093
:100200000431FAE72249234A234B14469A4204DA7E
:100210000868106004310432F8E719490C601F497E
:100220001F4A204B9A4204DA0868106004310432F5
:10023000F8E700201C491D4A914202DA08600431A7
:10024000FAE708F031FE08F049FE194C194DAC42AE
:1002500003DA216888470434F9E708F061FE164C98
:10026000164DAC4203DA216888470434F9E7144993
:100270000847000000040420000C042000010010C6
:1002800008ED00E0555555550000042000040420F9
:100290000001001000010010C001001048C2001051
:1002A000000000207C09002080090020E02A0020B6
:1002B000C0010010C0010010C0010010C0010010FA
:1002C000D98E00107CE700F000F8FEE7F0B5444658
:1002D0004D4656465F46F0B46B46CB60C3689D46BC
:1002E000F0BCA046A946B246BB46F0BD05F0AAFB4D
:1002F00062B6281CA047002006F0E4FAFEE706F0EC
:100300003BFB024A024B1360FEE7C04604ED00E0EF
:10031000000000807047C0469E2110B5C905041C2E
:1003200000F074FC002803D1201C00F0DFFB10BD9E
:100330009E21201CC90500F035FA00F0D7FB802370
:100340001B069C466044F2E7F0B54F464646D6464B
:1003500044024500C0B5640A0F1C2D0EC60F002DC7
:100360004FD0FF2D55D08023E400DB041C43002335
:1003700099469A467F3D7B0278005B0A9846000EBC
:10038000FF0F002831D0FF2810D08022DB00D204DC
:100390001A43904600217F382D1A4B4632000B43FA
:1003A00071489B00C3587A40D2B29F46FF3D002B54
:1003B00054D102234946194332000B007A40033BD3
:1003C000D2B20C2B04D869499B00CB589F463A0007
:1003D000002000246402C305600AD20718431043BA
:1003E0001CBC90469946A246F0BD002B2BD10123A0
:1003F0004946320019438B005D497A40CB58D2B24E
:100400009F46002C13D104239946033B00259A46AE
:10041000B1E7002C05D108239946063BFF259A46F3
:10042000A9E70C239946093BFF259A46A3E720003C
:1004300000F0F6FB7625431F9C4000236D422D1AE9
:1004400099469A4697E7180000F0EAFB4246431F98
:100450009A402D189046763500219EE703219CE7AF
:1004600017003A00FF200024B4E780240022E403B0
:10047000FF20AFE732005346022BF1D0032B6CD0A4
:10048000012BA5D028007F30002846DD630704D06B
:100490000F232340042B00D00434230103D528006C
:1004A000344B80301C40FE28DCDCA401640AC0B25E
:1004B00090E78023DB031C4227D042461A4224D116
:1004C00044461C436402640A3A00FF2082E73A0073
:1004D00044468A46CFE7414663014C01A34235D2E8
:1004E0001B200021013D01271E0049005B00002E5A
:1004F00001DB9C4201D81B1B394301380028F3D192
:100500001C00631E9C410C43BCE78023DB031C439F
:100510006402640A3200FF205CE70123181A1B28DA
:1005200000DD55E79E352300AC40C340611E8C4181
:100530001C43630704D00F232340042B00D0043452
:10054000630107D4A401640A002043E71B1B1A209F
:100550000121C8E7012000243CE78023DB031C4382
:100560006402640AFF2035E740AB001080AB001046
:10057000B4AB0010FFFFFFF7F0B54F464646D64636
:1005800044024500C0B58846640A2D0EC70F002DF1
:1005900049D0FF2D4FD08023E400DB041C4300230F
:1005A00099469A467F3D434642465E02D20F5B0023
:1005B000760A1B0E904646D0FF2B12D080220020D8
:1005C000F600D2047F3B1643ED186A1C434694465E
:1005D0004A467B400F2A00D974E0704992008A583D
:1005E0009746FF35002E54D14A4602231A439146BE
:1005F0000220EAE74346340082465246022A2AD0C5
:10060000032A00D1C3E0012A00D082E000220024A6
:100610006402D205600ADB07104318431CBC9046F5
:100620009946A246F0BD002C27D104239946033BEE
:1006300000259A46B7E7002C19D108239946063BB6
:10064000FF259A46AFE7002E08D14A4601231A43F8
:1006500091460120B9E7FF220024D9E7300000F0DD
:10066000DFFA431F2D1A9E40763D0020ADE70C2394
:100670009946093BFF259A4695E7200000F0D0FAFD
:100680007625431F9C4000236D422D1A99469A46B9
:1006900089E74A4603231A439146032095E73B0026
:1006A000ABE780240023E403FF22B1E78023DB03D0
:1006B0001C4245D01E4243D133435C02640A434688
:1006C000FF22A5E7200C2404210C0F00320C360475
:1006D000360C774351434643504389193A0C52181C
:1006E000964203D980214902884640443F041104C0
:1006F0003F0CC9198C01661EB441890E2143140CAC
:100700002418A4010C4322013CD5012261081440A5
:100710000C4360467F3000281ADD620704D00F22A8
:100720002240042A00D00434220103D560461C4A2A
:1007300080301440FE288EDCA401640AC2B267E750
:100740008020C00304436402640A3B00FF225FE789
:100750000122101A1B2800DD58E762469E32210054
:100760009440C140621E94410C43620704D00F22A2
:100770002240042A00D00434620105D4A401640A92
:10078000002245E7AC46C4E70122002440E780226E
:10079000D20314436402640AFF2239E7ECAB001071
:1007A000FFFFFFF7F8B543025B0ADA00DE46934627
:1007B0004A02520A454690464E4657464446E0B5E0
:1007C0004A0047003F0EE400120EA1469C463E0040
:1007D000C50FC90FBC1AFF2A00D177E0012082465D
:1007E000504641408D4200D180E0002C51DD002A6E
:1007F00000D073E04B46002B00D1DDE0013C002C23
:100800000FD0FF2F00D1A5E001231B2C09DC2022F3
:100810004946121B91404B460A00E340511E8A4153
:1008200013435A46D31A5A0100D4C0E09B019C09D5
:10083000200000F0F5F9230005388340864200DDF2
:10084000C4E0861B1A0020200136F240861BB3400C
:100850005C1EA341002613435A0704D00F221A40FE
:10086000042A00D004335A0100D4A3E00136F7B2C1
:10087000FF2E00D1A7E09B015B0A5802FF05400A4A
:10088000ED07384328433CBC90469946A246AB4608
:10089000F8BD002C4FD1FE247A1C144200D099E000
:1008A0005A46002F00D000E1002A00D1F1E04A466C
:1008B000002AE2D04B465A46D31A5A0100D402E12C
:1008C0004B465A460D009B1A0026C5E748460028AD
:1008D00000D183E78D4251D0002CDADDFF2F39D0D3
:1008E00080234A46DB041A4391468DE7002C45DD00
:1008F000002A3AD0FF2F2DD080234A46DB041A432A
:10090000914601231B2C09DC20224946121B9140F1
:100910004B460A00E340511E8A4113435B445A018F
:1009200045D50136FF2E4ED001226E491A405B0894
:100930000B40134390E7D41B0D00002F6FD15B4693
:10094000002B00D18FE0013C002C00D1C2E0FF2A37
:100950006CD1C4466346002B35D080236246DB034E
:1009600013435B025B0AFF2787E74B46002B23D02C
:10097000013C002C74D0FF2FC3D1EBE7002C35D104
:10098000FE227E1C324200D089E05A46002F6DD1F3
:10099000002A00D1A3E04A46002A00D16DE75B4659
:1009A0004B4400265A0102D54F4A013613405A07DC
:1009B00000D053E7DB089C46FF2ECBD063465B029A
:1009C0005B0AF7B259E7FF27002356E7464A361A73
:1009D000134041E74B465A46D41A63016FD4002CAA
:1009E00000D025E700250027002346E7D11B002F74
:1009F0002CD0FF2AADD080235846DB041843834611
:100A000001231B2908DC5B4620245846CB40611A91
:100A10008840411E884103434B4416007FE7FF2A6C
:100A200097D080235946DB0419438B4601231B2CA6
:100A300008DC20215B465846E3400C1BA040411EC9
:100A40008841034349461600CB1AECE65B46002B6F
:100A500009D001390029DFD0FF2AD1D1C44679E776
:100A60005B464B445BE7C4461600A5E7002A00D16D
:100A70006FE74A46002A00D16CE78022D203134276
:100A800000D167E74346134200D063E70D00C44638
:100A900060E74B46002B1AD00D004346EDE6FF2ED3
:100AA00091D05B464B445B0881E7002AE1D14B467D
:100AB000002BEBD180230025DB03FF27DDE64B462F
:100AC0000D009C1AB4E60026002B00D06FE700252D
:100AD0000023D2E64B46594616005B1AA3E643466E
:100AE000CBE6C046FFFFFF7DFFFFFFFB4102420058
:100AF000C30F490A120E00207E2A03D99D2A02D96B
:100B0000094A98187047802000040143952A07DCA1
:100B10009620821AD1404842002BF3D10800F1E719
:100B2000963A9140F7E7C046FFFFFF7F70B5041E7D
:100B30000DD000F075F89E22121A962A0EDCD2B261
:100B400008282EDD083884406002400A01E00022B7
:100B500000204002D205400A104370BD992A09DDE9
:100B6000030021001B3399404B1E994105231B1A9A
:100B7000DC400C43052801DD431F9C4023000A494B
:100B80000B40650709D00F252C40042C05D00433F9
:100B90005C0102D59F220B40121A9B01580AD2B267
:100BA000D7E76002400AD4E7FFFFFFFB8446081C3A
:100BB0006146FFE71FB500F0C5F8002801D4002109
:100BC000C8421FBD10B500F049F84042013010BDC9
:100BD00010B500F0B7F8002801DB002010BD01209F
:100BE00010BDC04610B500F0ADF8002801DD0020B2
:100BF00010BD012010BDC04610B500F057F8002808
:100C000001DC002010BD012010BDC04610B500F071
:100C10004DF8002801DA002010BD012010BDC046AB
:100C20001C2101231B04984201D3000C10391B0A1C
:100C3000984201D3000A08391B09984201D30009E0
:100C4000043902A2105C40187047C0460403020237
:100C500001010101000000000000000070B5420029
:100C60004E024C0045026D0A120EC30F760A240E86
:100C7000C90FFF2A0FD0FF2C11D00120A24200D0B3
:100C800070BDB542FCD18B420DD0002AF8D12800AE
:100C9000451EA841F4E70120002DF1D1EBE701202A
:100CA000002EEDD1E9E70020EAE7C046F0B54200AA
:100CB00046024D024C00C30F760A120E6D0A240E36
:100CC000C80FFF2A1FD0FF2C10D0002A1FD171425D
:100CD0007141002C01D1002D1ED000290ED183427C
:100CE0001ED00221581E08400138F0BD002D26D12B
:100CF000002AF4D1714271410029F0D00028F4D1CA
:100D000001204042F1E7002E19D1FF2CEED0002C3B
:100D1000E5D1002DE3D1E4E70020002EE5D0E0E7A7
:100D2000A24205DCEADBAE4202D8E7D30020DCE7D2
:100D3000414241414842022108400138D5E70220A2
:100D40004042D2E7F0B5420046024D024C00C30FCC
:100D5000760A120E6D0A240EC80FFF2A0DD0FF2C42
:100D60000FD0002A23D171427141002C0FD1002DE8
:100D70000DD10020002E14D00DE0002E10D1FF2C3C
:100D800015D1002D0CD1002A03D1714271410029E7
:100D900008D1834210D00221581E0840013800E0DB
:100DA0000220F0BD0028FCD101204042F9E7002CD0
:100DB000EFD1002DEDD1EEE7A24205DCF2DBAE4231
:100DC00002D8EFD30020ECE74142414148420221E2
:100DD00008400138E5E7C04602B4714649084900B9
:100DE000095C49008E4402BC7047C04603B471469A
:100DF000490840004900095E49008E4403BC704721
:100E000003B47146490840004900095A49008E441C
:100E100003BC7047414208401C2101231B04984237
:100E200001D3000C10391B0A984201D3000A08397B
:100E30001B09984201D30009043902A2105C401A30
:100E40007047C0461B1C1D1D1E1E1E1E1F1F1F1F80
:100E50001F1F1F1F70B5002812D0C317C5185D4093
:100E6000C40F2800FFF7DCFE9E22121A962A11DC1E
:100E7000D2B2082833DD083885406802400A02E013
:100E80000024002200204002D205400AE40710435B
:100E9000204370BD992A0BDD052329001B1AD94078
:100EA00003001B339D402B005D1EAB4119430D0019
:100EB000052801DD431F9D402B000A490B406E07AA
:100EC00009D00F263540042D05D004335D0102D52D
:100ED0009F220B40121A9B01580AD2B2D3E7680234
:100EE000400AD0E7FFFFFFFBF0B5C64600B50F2A6A
:100EF00043D90B00032603431E400C000300002EC1
:100F000040D11500103D2D09AC462D01A846804466
:100F100000E03B00676825685F60E7681D60DF6090
:100F20001F00A56810379D6010344345F1D1654618
:100F30000F230C2401352D01491913404519144282
:100F400023D08C59AC5104369C1B032CF9D80324B4
:100F5000043B9B0801339B002240ED18C918561E24
:100F6000002A07D0002300E02300CA5C5C1CEA547E
:100F70009E42F9D104BC9046F0BD0500561E002AE1
:100F8000F0D1F7E7561E0500ECE71A00F6E7C04679
:100F9000114B70B51C680500A06B002803D000231E
:100FA0000561436170BD183000F0AAF8A063002805
:100FB0000CD00A4B01220360094B4360094B83604C
:100FC0000B238381002302614361E8E7064B002283
:100FD0004221064800F050F8500800200E33CDABF7
:100FE00034126DE6ECDE050080C1001098C10010DF
:100FF000184B70B51D68AC6B002C0ED02069616970
:10100000154A164B09F074FD0122002312184B41BA
:10101000580040082261636170BD182000F070F82C
:10102000041EA8630FD00E4B012203600D4B4360DA
:101030000D4B83600B2383810023026143610748CA
:101040000A4A064BE6E70A4B00224E21094800F007
:1010500013F8C046500800202D7F954C2DF45158B0
:101060000E33CDAB34126DE6ECDE05002E7F954CD1
:1010700080C1001098C1001030B51C000A4B05005B
:101080001B6885B0D868002A0AD0084B02920193E9
:1010900000912B002200064900F020F800F0AAFD84
:1010A000044B1A00F2E7C04650080020CCC10010E3
:1010B000DCC10010D8C10010130010B50022FFF7EA
:1010C000DBFFC0460CB400B583B004AB04CB019386
:1010D00000F01EF903B008BC02B018470EB400B50A
:1010E00082B003AB0100054804CB0068019300F017
:1010F0000FF902B008BC03B01847C04650080020E2
:1011000010B5034B0100186800F064F810BDC0462C
:101110005008002010B5034B0100186800F004F8D7
:1011200010BDC0465008002070B50500002915D03C
:101130000C1F2368002B27DB280001F099FA244BB1
:101140001A68002A05D0A2420CD921686018824290
:1011500024D0626028001C6001F08CFA70BDA342AC
:1011600003D81A005368002BF9D111685018A04217
:101170001BD027D821686018834207D06360546071
:10118000280001F077FAE9E7E418D5E718685B680A
:1011900084466144216063605460F1E710685268DE
:1011A0008446614421606260D4E7206809185018C1
:1011B00011608342E4D118685B6884466144116021
:1011C0005360DDE70C2328002B6001F053FAC5E7DC
:1011D00080090020F8B50323CD1C9D430835060087
:1011E0000C2D2AD20C25A94229D8300001F040FA52
:1011F0002A4F3A68002A0AD013685B1B04D441E0E6
:1012000023685B1B1FD522005468002CF8D17B6833
:10121000002B3DD02900300004F0AAFA431C2AD04C
:101220000323C41C9C43A04205D0211A300004F0C3
:101230009FFA431C1FD0256010E0002DD3DA0C2349
:1012400000203360F8BD0B2B05D86368A2421DD087
:10125000536003E014002360E4182560300001F0BF
:1012600009FA200007220B30231D9043C21AE9D04F
:101270001B1AA350E6E70C233000336001F0FAF9A3
:101280000020DFE70B2BE5D8140053683B60E5E74F
:101290000021300004F06CFA7860BBE78009002080
:1012A000936810B5013B9360002B04DA9469A34264
:1012B00007DB0A2905D01368581C10600800197054
:1012C00010BD00F09BFBFBE7F8B506000F00002BFC
:1012D0000DD01400D51802E00134AC4207D02178BB
:1012E0003A003000FFF7DCFF431CF5D1F8BD0020C9
:1012F000FCE7C046936810B51400002B02D1002013
:10130000536010BD00F07AFE0023A3606360F8E72D
:10131000F0B54E46DE4657464546E0B5A1B00490CE
:10132000039191461C00002804D083690593002B8B
:1013300000D1BEE0AD4B039A9A4200D1C0E0AC4B65
:10134000039A9A4200D1CDE0AA4B039A9A4200D167
:1013500047E1039A93891B0700D4B9E01369059309
:10136000002B00D1B4E0002308AD6B6120336B7615
:101370001033AB762F3B98464B461B7807949E4F15
:10138000002B00D189E0252B00D125E14E4603E05A
:10139000252B00D1AAE026007378741C002BF7D10E
:1013A0004B46E31A9A4678D053464A460399049826
:1013B000FFF78AFF431C70D06B6953446B617378ED
:1013C000002B6AD00122002352426A604432013469
:1013D0002B60EB60AB60AB54AB6506E04346C01BD3
:1013E000834034002A6813432B602178052238009B
:1013F00001F04CF8661C0028F0D12B68B246DA06E2
:1014000002D543222021A9541A0702D543222B21B9
:10141000A95421782A2900D06EE0079A111D12687C
:101420000791002A00DABAE0EA606178A61C2E294A
:1014300000D17AE0714B03221800994601F026F89A
:10144000002800D18FE04B46C01A402383402A6811
:10145000317813432B600622731C6948994629761C
:1014600001F014F8002800D188E0664B002B00D171
:101470008EE007AB0093039A634B2900049800E0C9
:1014800000BF83465B46013307D06B695B446B61E9
:101490004B461B78002B00D075E7039B9B895B06AE
:1014A0001DD4686921B03CBC90469946A246AB4623
:1014B000F0BD00F07BFD4D4B039A9A4200D03EE711
:1014C000049B5B680393039A93891B0700D545E748
:1014D0000399049800F008FB002800D143E701209D
:1014E0004042DFE7049B9B68039332E74B46E31AD5
:1014F0009A4600D166E757E70A00303AA246092A21
:1015000095D8EB68180001E03400013683001B1801
:1015100031785B0098180A00303A092AF4D9B246AB
:10152000E860A61C2E2900D084E7534659782A2962
:101530003BD1079B1A1D079252469178D61C022276
:1015400094461B68E2446B60002B00DB72E70123CA
:101550005B426B60294B03221800994600F096FF0E
:10156000002800D06FE7B14656463178062224485D
:10157000297600F08BFF002800D076E707AB0093B8
:10158000039A214B2900049800F0E4F8834679E798
:101590000722079B073393430833079375E75242AB
:1015A000EA60022213432B603FE70A000023303A2F
:1015B0006B601800092A01D910E01E0083001B1877
:1015C00071785B0098180A00303A731C092AF4D924
:1015D0009A46023668602DE74C46F3E6B24601367D
:1015E00028E7049BDB680393B3E6C04674AD0010A4
:1015F00054AD001034AD00100CC2001014C2001025
:1016000018C2001000000000C912001010B504003C
:101610001300034A10680A002100FFF779FE10BD8D
:1016200050080020F0B54F464646D646C0B51F00CC
:10163000089B914698468A680B6906000C00934205
:1016400000DA13004A4613604322A25C002A02D04B
:101650004A460133136023689A065AD54B461B68E5
:1016600006209A1C4B461A6023681900184208D1BC
:10167000E16800258A1A19218A461900A244002A25
:101680003FDC4323E35C5A1E93418A060AD530208F
:10169000E1184331087045215A1C615CA21843329D
:1016A000023311702200390043323000C047431C1E
:1016B00019D006232068A26821690340042B30D08A
:1016C0008A423ADD00239946521A91441A34002581
:1016D00002E001354D4530DA0123220039003000A7
:1016E000C047431CF5D1012040421CBC904699469E
:1016F000A246F0BD4B46E2681B680135D31AAB42E7
:1017000020DD0123524639003000C047431CF1D18F
:10171000E9E706221A4212D04323E35C5A1E9341A2
:10172000C0E74B46E0681B68C31AD843C01718408F
:1017300081468A42C8DC002BC8DC0020D5E74A4637
:10174000126895E743232168E35C5A1E93418A0699
:101750009DD4A7E7F0B557469A4643239C464E468C
:101760004546DE468C446346E0B587B003930B7E66
:10177000914680460C00109A6E2B00D1D8E000D81C
:1017800071E0732B00D11AE100D881E0752B00D1F4
:10179000FFE0782B00D00BE10B68782045216054E6
:1017A00094498B46116840C91160180603D4580645
:1017B00001D53604360CDA0702D520221343236004
:1017C0001027002E00D1C2E043230022E2546368B8
:1017D000A360002B00DAC5E0042221689143216058
:1017E000002E00D083E0002B00D0BDE0039D082F29
:1017F00000D18CE0039B5B1B2361534605AA009339
:1018000021004B464046FFF70DFF431C22D02369C1
:101810002A0049464046D047431C1BD02268059801
:10182000E368920700D47FE01A1A002A00DC7BE00C
:1018300026000025193606E0E368059801351A1AD6
:10184000AA4200DC70E00123320049464046D047FE
:10185000431CF1D10120404207B03CBC9046994660
:10186000A246AB46F0BD632B00D184E01FD8002B0D
:1018700069D0582B00D09BE0452163545E49236812
:101880008B46116840C91160180600D48FE792E7B3
:101890006F2B7ED0702B00D08AE02023096878203F
:1018A0000B4345212360605452498B467AE7642BF1
:1018B00001D0692B7CD111682368081D10601D06BA
:1018C0004AD50A681600002A03DB4B4B0A279B46C1
:1018D0007DE743222D21A15462687642A260002A4E
:1018E00002DB042293432360434B0A279B46039D5C
:1018F00000E006003900300009F0E2F85B465B5C6E
:10190000013D2B70BE42F4D2082F00D072E723684D
:10191000DB0700D46EE763682269934200DD69E764
:101920003023013D2B7065E7984295DA180093E764
:10193000136809681D1D606915601B680E0601D4D7
:1019400049064BD418600023039D236155E72023EB
:1019500022689A43226037E75D06B2D500228E5E88
:101960003200B0E7002EC2D15B4625001A78422330
:101970004235E2543BE713682500191D11601A68CF
:101980004223E254413B4235236143230022E25487
:1019900033E7116820680D1D1560060601D4400666
:1019A0001ED40E686F2B1DD0134B0A279B460BE7E6
:1019B00042222500A354012342352361E5E7136841
:1019C000191D11601D6862680021280000F05EFD8D
:1019D00000280BD0401B60602061D6E71880B2E77A
:1019E0000E88DFE7044B08279B46EDE66068206120
:1019F000CBE7C04634C2001020C20010F8B5050085
:101A00000E001400002802D08369002B29D02D4B32
:101A10009C422BD02C4B9C4246D02C4B9C424ED00F
:101A2000A369A360A3891B0726D52369002B23D0B4
:101A3000FF22F7B2616916402268D31A99422ADD63
:101A40000133A1680139A160511C216017706269DE
:101A50009A422BD0A389DB0701D50A2E26D030006D
:101A6000F8BD00F0A3FA174B9C42D3D16C68A36970
:101A7000A360A3891B07D8D42100280000F034F804
:101A8000002819D1FF222369F7B261691640226844
:101A9000D31A9942D4DC2100280000F04DF9002827
:101AA0000AD122680123CCE7AC68B9E721002800FD
:101AB00000F042F90028D2D001267642CFE7EC6848
:101AC000AEE7C04674AD001054AD001034AD001048
:101AD00010B5044B0A001B6801001800FFF78EFFC9
:101AE00010BDC046500800203E4B70B51D68060072
:101AF0000C00002D02D0AB69002B1BD03A4B9C424E
:101B00001ED03A4B9C424CD0394B9C4260D00C23A7
:101B1000E25E93B2190719D52169002921D0DA07AD
:101B20002ED50023A360636900205B42A3610029D6
:101B30002ED070BD280000F039FA2B4B9C42E0D12A
:101B40006C680C23E25E93B21907E5D4D90641D53F
:101B50005B0728D4216908231343A3819BB2002982
:101B6000DDD1A0228020920080001A408242D6D08F
:101B70002100300000F042FCA3892169DA07D0D4AB
:101B800000229B0700D46269A26000200029D0D106
:101B90000C22A35E1A06CCD540221343A381013840
:101BA000C7E7AC68B3E7616B00290AD02300443370
:101BB000994204D03000FFF7B7FA0C23E25E00230D
:101BC000636324239A430023216963602160C2E791
:101BD000EC689CE709233360402301201A43A2816B
:101BE0004042A6E75008002074AD001054AD00102C
:101BF00034AD001010B5062000F0F4FD012003F014
:101C0000A3FDC046F0B5C64600B58B8980460C00E2
:101C10001A0745D44A68002A63DDE56A002D3BD0E7
:101C200042464146166800220A60216ADA045CD402
:101C3000012300224046A847431C61D0A389E56ADE
:101C4000216A5B0706D56368C01A636B002B01D05D
:101C5000236CC01A002302004046A847431C46D10B
:101C600043461B680C21625E002B56D01D2B01D011
:101C7000162B5DD100236360236923604346616BAB
:101C80001E60002908D023004433994202D0404608
:101C9000FFF74AFA00236363002004BC9046F0BDBE
:101CA0000E69002EF8D00A680E60951B00229B0773
:101CB00000D14A69A260002D04DCEDE736182D1A28
:101CC000002DE9DD2B003200216A4046A76AB847A3
:101CD0000028F3DC40220120A38940421343A38162
:101CE000DBE70A6C002A98DCD6E7606DA9E70023E1
:101CF000636023692360A389DB04BFD56065BDE70A
:101D000043461B68002B99D01D2B0DD0162B0BD0F2
:101D10004022A3891343A381BFE763602369236043
:101D2000D304ABD56065A9E7434600201E60B4E745
:101D300040231A43A281B0E70B6970B505000C007F
:101D4000002B16D0002802D08369002B15D00E4B33
:101D50009C4210D00D4B9C4212D00D4B9C4211D096
:101D60000C22A35E002B04D021002800FFF74AFFBD
:101D700000E0002070BD6C68F2E700F017F9E6E7BC
:101D8000AC68EDE7EC68EBE774AD001054AD001003
:101D900034AD001010B5011E04D0054B1868FFF7D4
:101DA000CBFF10BD034B0449186800F0D9FAF8E7DF
:101DB0005008002030AD0010391D00100020704781
:101DC00010B5024900F0CCFA10BDC046391D001014
:101DD0000020704770B568244A1E54430E0021004D
:101DE0007431FFF7F7F9051E09D0002322000360C4
:101DF00046600C30A8606832002100F0E5FB280046
:101E000070BDC0461E4B70B51D680600AB69002B47
:101E100027D048356B68AC68013B03D51CE06834BB
:101E2000013B19D30C21625E002AF8D10025200065
:101E3000144B656625606560A560E360256165619A
:101E4000A561082200215C3000F0BEFB6563A5633C
:101E5000A564E564200070BD2C68002C05D0250029
:101E6000D8E7280000F010F8D3E704213000FFF78E
:101E7000B1FF041E2860F2D10C233360EAE7C046AC
:101E800030AD00100100FFFFF0B5D6464F46464684
:101E9000384BC0B5836200238364C3640365364B4B
:101EA00082B01B6805000193984260D02800FFF7BC
:101EB000A9FF68602800FFF7A5FFA8602800FFF7CA
:101EC000A1FF6E680024E86004233000746634606B
:101ED0007460B460F36034617461B46108220021FD
:101EE0005C3000F071FB254B254F9A467362254B01
:101EF00037639946B362244B3662F362AE68984604
:101F00003000224B746634607460B460F3603461F6
:101F10007461B461082200215C3000F055FB534627
:101F200073624B46B36243463763F3623662EE68D0
:101F3000174B3000F360746634607460B4603461D1
:101F40007461B461082200215C3000F03DFB53460F
:101F500073624B46B3624346F362012336623763D2
:101F6000AB6102B01CBC90469946A246F0BD01236D
:101F700083619BE7C11D001030AD00107128001077
:101F8000092900109D280010DD280010090001001B
:101F90001200020010B5034B0349186800F0E0F985
:101FA00010BDC04630AD0010391D0010836910B55A
:101FB000002B01D1FFF768FF10BDC0467047C04637
:101FC0007047C0467047C0467047C04610B5034BC7
:101FD0000349186800F0A2F910BDC046500800205F
:101FE000BD1D001010B5034B0349186800F096F9A9
:101FF00010BDC04650080020D11D0010F0B5454668
:10200000DE4657464E46E0B5936883B000900C001C
:102010009046002B6DD08B891A0700D471E00A69B5
:10202000002A00D16DE0424616689A0700D475E098
:10203000A36A00279A46B54B00259946216A002DD0
:1020400016D02B004D4500D9B04B3A000098D04730
:10205000002800DCD5E043469B683F182D1A181A6B
:102060004346986045D0A36A216A9A46002DE8D17C
:10207000376875680836E2E74B461B689A464B4658
:102080005F6808239C46E144002FF5D03A000A21FE
:10209000504600F0FBF9002800D1CEE05346013055
:1020A000C61A3300BB469F4200D99B46206822696E
:1020B0006369904204D9A2689D18AB4500DD92E0A7
:1020C0005B4500DDF9E0A56A5246216A0098A84701
:1020D000051E00DC95E0761B0120002E00D1E4E017
:1020E00043469B68AA447F1B5D1B43469D6000D00E
:1020F00095E0002003B03CBC90469946A246AB4612
:10210000F0BD21000098FFF7EFFC002800D0F9E0B7
:102110004246A38916689A0700D589E7DA0778D47A
:10212000002291468022920000279346A5682068ED
:10213000002F53D05A46134200D181E0AA46BD4237
:1021400000D9AFE09022D20013422ED02169451A67
:10215000AC466069019542001218D00F8218781CB5
:10216000521060449246904201D9824602005B05BB
:1021700000D4AFE011000098FFF72CF8051E00D145
:10218000BAE0019A2169FEF7AFFEA389604A1340C5
:1021900080221343A3815246019B2561E818BA4669
:1021A0003D00D31A20606261A3605246494600F0A8
:1021B000ADF9A3685D1BA5603D000027236853446B
:1021C000236043469B68A9445D1B43469D6000D144
:1021D0008FE7A5682068A389002FABD132687768A4
:1021E00091460836A4E751462A0000F08FF923688B
:1021F00021005B1923600098FFF79EFD002800D1A5
:1022000069E70C22A35E402201201343A3814042D0
:1022100070E70023B14600209A4600271E00002FD9
:1022200000D129E7002800D03BE73A000A215046B8
:1022300000F02CF9002800D030E77B1C1E0031E7AD
:102240002369834217D363699A46BB4213D8314B43
:1022500038009F4200D93048514608F039FC5346B7
:102260004A464343216A0098A56AA8470028C8DD6A
:1022700005007F1BA5E7BD4200D93D002A00494665
:1022800000F044F9A36822685B1B5219A360226026
:10229000002BEED121000098FFF74EFD0028B0D1B1
:1022A0007F1B8EE73D00BA467FE721000098FFF7CD
:1022B00043FD002800D113E7A3E75A46514600F03A
:1022C00025F95A46A3685D469B1AA36023685B44C0
:1022D000236000E7009800F0CFF9051E00D05AE710
:1022E000009D21692800FEF71FFF8022A3899343E8
:1022F000743A1BB22A6086E70C23009A13600C2202
:10230000A35E80E701204042F4E6C04600FCFF7F68
:102310007FFBFFFFFEFFFF7FFFFFFF7FF0B5C6469D
:10232000483000B5884607000026002813D07B6897
:10233000BC685D1E0CD4A389012B06D90E22A35EB6
:10234000013302D02000C04706436834013DF2D279
:102350003F68002FEBD1300004BC9046F0BDC04672
:10236000F8B54746CE4680B50700483780468946CF
:102370000026002F14D07B68BC685D1E0DD4A38995
:10238000012B07D90E22A35E013303D02100404662
:10239000C84706436834013DF1D23F68002FEAD1B7
:1023A00030000CBC90469946F8BDC04670B50C0094
:1023B0001D000E23C95E96B01600002914DB6A4684
:1023C00003F0CAF900280FDBF022019B1202134030
:1023D000094A944663445A4253412B608023DB00F0
:1023E0003360002016B070BD00232B60A3891B064C
:1023F000F4D540233360F4E700E0FFFF70B58B892C
:1024000082B006000C009B0707D5230047332360EA
:1024100023610123636102B070BD01AB6A46FFF71F
:10242000C5FF009905003000FEF7D4FE002810D04B
:102430008022154BB362A38920601343009A1BB21C
:102440006261019AA3812061002A0CD12B43A381F0
:10245000E1E70C22A35E9A05DDD403229343022216
:102460001343A381D1E70E23E15E300003F072F93C
:10247000002802D10C22A35EE8E70322A38993433C
:10248000012213431BB2E1E7C11D001070B5CDB2AC
:10249000830734D0531E002A1BD00278AA4219D0D9
:1024A000032404E0013B14D30278AA4212D0013085
:1024B0002042F7D1032B0ED8002B0AD00278AA4273
:1024C00008D0C31802E00278AA4203D00130834248
:1024D000F9D1002070BDFF220C06240C11402143CD
:1024E0000C04084E0C43026807496240511891439E
:1024F0003142E3D1043B0430032BF4D8DCE7130072
:10250000D8E7C04680808080FFFEFEFEF0B5C6465C
:1025100000B588420CD98B18984209D2531E002A64
:1025200003D0CA5CC254013BFBD204BC9046F0BD50
:102530000F2A0CD80500561E002AF6D0002300E012
:102540002300CA5C5C1CEA549E42F9D1EDE70B0003
:10255000032603431E400C000300002E2ED115005D
:10256000103D2D09AC462D01A846804400E02B000B
:102570001D00276810351F6067685F60A7689F604F
:10258000E7681034DF604345F1D165460F230C2422
:1025900001352D01491913404519144211D08C59A8
:1025A000AC5104369C1B032CF9D80324043B9B0834
:1025B00001339B00ED18C9182240BCE7561E0500E8
:1025C000BCE71A00B7E7C046F0B5050083074AD05C
:1025D000541E002A44D0CEB20300032202E001358B
:1025E000013C3DD301332E701342F8D1032C2FD977
:1025F000FF220A40150215432A0415430F2C35D932
:102600002700103F3F093E01B4461E001A00103655
:102610006644156055609560D5601032B242F8D1BD
:102620000F260C2201373F012640DB1937002242DA
:1026300017D03E1FB608B400A4461A001C1D6444FF
:1026400020C2A242FCD103240136B6009B193C40B3
:10265000002C05D0C9B21C19197001339C42FBD162
:10266000F0BD3400F4E714000300BFE72700E0E703
:102670007047C0467047C046F8B507000C0015000B
:1026800000291BD0002A15D000F044F92600A842EA
:1026900001D33000F8BD29003800FEF79BFD061E6F
:1026A000F7D021002A00FEF71FFC21003800FEF7BA
:1026B0003BFDEEE7FEF738FD0026EAE71100FEF7E6
:1026C00089FD0600E5E7C04610B580210400FEF74D
:1026D00081FD6064002807D002000023803208C01A
:1026E0009042FCD1002010BD01204042FBE7C046D3
:1026F000426C10B50023002A01D0180010BDFFF76E
:10270000E3FF0300F9E7C04670B505000C001600B2
:102710001F2907D8436C002B09D0A4001B19186887
:102720001E6070BD1623036001204042F9E7FFF7E9
:10273000CBFF002801D16B6CEFE701204042F0E7AE
:1027400070B505000C001F2920D8436C002B0ED05B
:102750008A009B181A68002A09D0012A14D0511C3B
:102760000ED00021200019609047002070BD280085
:1027700000F07AF822000100280000F061F8F5E787
:10278000162303600120F1E70020EFE71623036022
:1027900001204042EAE7C04670B505000C001F2941
:1027A0001DD8436C002B10D0A2009B181A68002A79
:1027B00009D0511C11D0012A0DD000212000196030
:1027C0009047002070BD0120FCE7FFF77DFF002847
:1027D00005D16B6CE8E70320F4E70220F2E7012063
:1027E0004042EFE710B5034B01001868FFF7A8FF60
:1027F00010BDC0465008002010B5044B0A001B68ED
:1028000001001800FFF780FF10BDC04650080020EF
:10281000054B10B51B6800205A6C002A00D010BD73
:102820001800FFF751FFFAE75008002010B5034BDE
:1028300001001868FFF7B0FF10BDC0465008002027
:10284000002370B5074C050008001100236002F05A
:1028500075FF431C00D070BD2368002BFBD02B609C
:10286000F9E7C046DC2A002010B502F065FF10BD74
:1028700070B50C000E25495F02F09EFF002803DBB7
:10288000636D1B18636570BDA389024A1340A38161
:10289000F9E7C046FFEFFFFF00207047F8B51600CC
:1028A0001F000C228B5E0C0005000E22895EDA05EB
:1028B00008D4094A28001340A38132003B0002F0EB
:1028C00077FFF8BD0022022302F074FF0C22A35E02
:1028D0000E22A15EEDE7C046FFEFFFFF70B50C00D2
:1028E0000E25495F02F066FF431C06D08023A289B3
:1028F0005B011343A381606570BDA389014A134046
:10290000A381F9E7FFEFFFFF10B50E23C95E02F0C8
:102910004DFF10BD0B1F1B68181F002B00DB7047FD
:102920000B58C018FBE7C04630B5032A0CD903008A
:102930000B439B071CD103680C68A34218D1043ACF
:1029400004300431032AF6D8551E002A0ED002782E
:102950000C7894420ED101350123013904E0C25CA8
:102960000133CC5CA24205D1AB42F8D1002030BD8E
:10297000551EECE7101BFAE710B5830727D0037844
:10298000002B26D00300032102E01A78002A1CD075
:1029900001330B42F9D119680F4A104C8A188A4347
:1029A00022420FD1043319680B4A8A188A43224203
:1029B00008D104331968084A8A188A432242F1D0A0
:1029C00000E001331A78002AFBD1181A10BD030069
:1029D000E1E70020FAE7C046FFFEFEFE808080802F
:1029E0000721002230B50140074CC00880002418A0
:1029F00001251000A35CCB402B40934001321843CB
:102A0000C0B2042AF6D130BD2815002070B50125CA
:102A1000CC080B4BA4001C1907232E0019408E4034
:102A20000022F6B20300D340A15C2B405B424B4036
:102A300033404B40A3540132042AF3D170BDC04649
:102A400028150020F0B505000C2485B00F00110EEC
:102A50001202019201981A000023029108F050F826
:102A60006C43274B0600E41863680391834200D24D
:102A700060602B1FDBB20093C023009A9B012343AD
:102A8000012A2ED8012F2CD103221A603B00A26804
:102A90001A42FCD0E02223681340802252012243D4
:102AA0001360009B012B09D8032123687B400B4056
:102AB00013600123BB40A2681342FCD08023802214
:102AC0009B01234312011A600198039B6660320048
:102AD000029908F015F80B4BAD00E850012005B045
:102AE000F0BD802212011A60064BAA00D1580029BD
:102AF000D0D0586907F0F4FF01300138FDD1C9E7A3
:102B0000008000407C0E00208322534B920010B5C1
:102B1000DA620022AA21514B09019A67504A5148B2
:102B200011602F21D1605049086051680029FCDAFA
:102B300001214E4A11605A6C012AFCD103214C4AF2
:102B400011609A6B012AFCD14A4B1A68002A11DAEB
:102B50003F211A680A40012A0CD19A681205120D09
:102B60007D2A07D1EE21DA68C9020A40C421C902D0
:102B70008A421AD08022404952010A603F494048A7
:102B80000A60140081688C43211EFAD101221A6068
:102B90007C329A603B4A2131116019680029FCDAC5
:102BA000C421C902D96008231360374B1A68002A70
:102BB00011DA3F211A680A40012A0CD19A681205DD
:102BC000120D642A07D1EE21DA68C9020A40AA214F
:102BD000C9028A421AD08022274992010A602749F5
:102BE00027480A60140081688C43211EFAD1012213
:102BF0001A6063329A60254A2131116019680029F0
:102C0000FCDAAA21C902D96008231360204B0221F3
:102C10001A000420FFF716FF1E4B01211A000520A1
:102C2000FFF710FF1C4B00211A000720FFF70AFFD7
:102C3000194B00211A000820FFF704FF174B164A12
:102C400000210920FFF7FEFE124B00211A0006208A
:102C5000FFF7F8FE10BDC046008005400080004030
:102C60000040024000B0FA00006002403CB000406A
:102C700030B000400080024000E0004000F0004022
:102C800000C0004004B0024000C0024004F0024016
:102C9000001BB70040597307006CDC021BB7000033
:102CA00010B5002903D101240A4A0B4BD4500B4A1A
:102CB000CB009B188022DC6F12012243DA670122CD
:102CC0000231890041184B685B695A7500229A7578
:102CD00010BDC046000011506820000004001050D4
:102CE00010B5002903D102240A4A0B4BD4500B4AD9
:102CF000CB009B188022DC6F12012243DA6701228D
:102D00000231890041184B689B69DA7400221A75F8
:102D100010BDC0460000115068200000080010508F
:102D2000F0B5002930D11D4BDD6C8B1C9B00C01809
:102D3000406801228469267DA27433005F1EBB4176
:102D4000724022752668408A5F03B04200D9300085
:102D50008023DB000343124A9BB23B43134062686B
:102D60008018864202D88022D20113430D4A1540B2
:102D700080229205154300290BD1084AD5640A4ADE
:102D8000C90089184B60F0BD084ACB009B185D68EC
:102D9000CBE70648CA0012185560F0E70000115052
:102DA000FF7FFFFFFFFFFFAF8000105000001050BB
:102DB000012370B50500408918436881E86884697B
:102DC000A160002122606160E1608A4205D0418AF1
:102DD000013A501807F084FE83B2280023820021B4
:102DE000FFF79EFF70BD00007F220138C31713401C
:102DF0001B18DB110133DB0102329BB2FF3210B52D
:102E000093420ED0FF2480220749D2002402591891
:102E10001000214204D0181C934200D9101C80B22B
:102E200010BD80208000FBE780FDFFFFF0B58B1C0C
:102E30009B00C3185F6885B000900C1E7E69BD6959
:102E400010D14023414AB383B261B182B175698226
:102E500029758021AA61AB833D4A3E4B8905D1503B
:102E600005B0F0BD002E38D03B4BCA00D3180393F9
:102E70003A4BD2180023D367B3753A68B3820192F4
:102E8000012A5FD1388AFFF7AFFF80220223920028
:102E9000904208D080220133D200904203D0431EDA
:102EA000FF3B5A425341DB060293009AE2329446BA
:102EB0006346118842008A181A80294BB083CA18C9
:102EC000019B8131B261FF319A060A4380210906D4
:102ED0000A430399029B04C1CB67002DC0D01E4B4F
:102EE000E400E6181F4B4020E4180023E3672B752D
:102EF0003C686B82012C11D1388AFFF775FF802264
:102F000002239200904208D080220133D2009042E6
:102F100003D0431EFF3B5A425341DB06009AA406EE
:102F2000E2321188471817800D4AA8838A18AA61CF
:102F300080228131FF310C4312061443746008363D
:102F4000F3678DE702934020AFE7C04600011050C1
:102F5000000011504C2000000000105004001050E0
:102F6000800110500800105010B50E4C0E4B200080
:102F70000021E360FFF75AFF00230C4AE23413609C
:102F8000012223800A49D0000A4C4018D1000C19B4
:102F90008360E367C360084801320918CB670F2AD2
:102FA000F0D110BDC00A002018B20010000011506E
:102FB000F8FF0F500400105008001050034B1A681F
:102FC00082431A609A681042FCD0704700C00040EB
:102FD000BFF35F8FD023BE221B0652009B5062B608
:102FE000704772B6D021BE22090652008B58002BC2
:102FF000FCD0BFF35F8F7047F7B5154C154AA36A35
:10300000C5690193436864261B68934204D9124A38
:103010004B3E934200D90F3E0127EB6EBB43EB665C
:10302000FFF7D6FF2B009C331B683B4001D11C00EF
:103030000AE0FFF7D6FFA36A019A9B1AB342EFD3C7
:103040000124FFF7C5FF6442FFF7CBFF2000FEBD60
:1030500000400540A0860100801A0600C022436897
:10306000D20510B5D968DA608368054A0133DB0000
:103070009C58002C02D0D3185868A04710BDC046F9
:10308000C00E00200300020010B5D6331B78DE32DC
:1030900013707F221340064A0400136043681B68C4
:1030A000002B01D0012198470323237010BDC04697
:1030B0000000115003001B68984204D09A6894469F
:1030C0008A689445F7D25A680B604A60116059606B
:1030D0007047FEE700238268037503691B689968DF
:1030E0009142FBD85A680360426010605860704794
:1030F00000238268037503691B6899689142FBD2BB
:103100005A680360426010605860704710B50C0048
:10311000FFF767FF207D052807D8FDF75DFE0C0649
:103120000603130F0022A3691A6001235B42A36107
:103130002000FFF7DDFFFFF74BFF10BDA26993688A
:10314000013393606268236813605A60EDE7000002
:10315000D0231B061968084A890052185268016971
:1031600010B5914205D01A6D920702D50122524244
:103170005A65FFF7BDFF10BD680E0020F0B504686A
:10318000C2608B6048600C6061600160142B00D2EB
:103190001423D0252D062968144C8900611849682C
:1031A0009E188F6A1249381D800046500120B84091
:1031B00048638E6B3043886314208E6AB71ABB4213
:1031C0000CD82B6801309B00E3185B6812189B6ACF
:1031D00004339B00CA5003003200EEE7142803D9E1
:1031E0000123E2681343E360F0BDC046680E00208F
:1031F00000400540F0B5142900D21421D026142235
:103200000D4C0E4D3606336847189B00E3185B687B
:103210009B6A04339B005F51AB6A181A814203D842
:10322000013211001800EEE7142A03D90123E268E5
:103230001343E360F0BDC046680E00200040054027
:1032400070B5D024240623681B499B00CB185A680C
:10325000136998420CD00368416884680B60596018
:1032600099680919996000230360013B936170BD5F
:1032700013000568103315616B6000250560166941
:103280000E4DB3420AD12268AB6B920089184A688E
:10329000916A01228A409343AB63E8E78468B3688C
:1032A000D1691C19B460A86A421A9442DFD9091A7C
:1032B0000919FFF79FFFDAE7680E0020004005407C
:1032C00010B503689C68A2420CD85C688A600B60E9
:1032D0004C602160596099688A1A9A6001235B42A8
:1032E000836010BD121B1B68ECE70000D0221206A1
:1032F0001368F0B52E4E9B00F3185D6885B02B0067
:103300001033019303922C692A4FE969B86AA368C4
:10331000421A934242D8CB18EB6162680293236849
:1033200013605A60002323602A69019B93420AD1EB
:103330000121039B1B68BA6B9B00F3185B689B6AB7
:1033400099408A43BA63FFF743FEE368216920008E
:103350009847FFF746FE6369002BD4D0BA6A0299FA
:10336000511A8B420DD20223F0680343F36000230D
:1033700001982F69B84208D12100FFF7FFFE05B080
:10338000F0BD02981B189B1AF2E75A188A4200D225
:103390001A0021000198FFF793FFB4E7019AA242B7
:1033A000EDD0C918091AE861A160FFF723FFE6E72D
:1033B000680E00200040054070B5130004000E4A5E
:1033C00000680E00926A844203D12000FFF7D6FE07
:1033D00070BDE168511A5D188D4200D21D008168F0
:1033E000A94203D919001000FFF704FF2A00310099
:1033F0002000FFF765FFEBE70040054070B50D4C7E
:10340000050023680E00002B02D02000FFF718FFF4
:10341000D0231B061A68084B92009B185868074B6C
:103420002A00E36000231030210026616361FFF76A
:10343000C3FF70BDB80F0020680E0020294800109F
:1034400072B6D02109060B68054A9B00D3185B6849
:10345000986502235B424B6505331370FEE7C04657
:10346000680E0020014B18787047C046D00F00202E
:1034700010B5FFF7B6FDFFF7ABFD10BD020070B54C
:10348000D43215787F23290004001940212900D067
:1034900082E09D4334D0802D00D07DE00300D53301
:1034A0001878022823D0032814D0012800D073E014
:1034B000210003331B78C831083AD034002B05D1E2
:1034C000464D0D6008211160236070BD00230B6024
:1034D0001360F9E72300D8331B88002B5CD122004E
:1034E00001203F49C83211605060D034ECE723001E
:1034F00001203C4AC8331A605860D0340023E3E707
:103500000300D5331B780A2B40D00B2B11D0092B8D
:1035100042D10300D8331B78012B3DD80300324A37
:10352000C8331A6002225A60304BD0342360012025
:10353000CBE70300D8331D88002D20D1023B1B7838
:10354000284E5A1E9341264A13703378002B16D00A
:10355000FFF747FD264A00233078290007F0C8FA14
:103560000023244A80185941FA220023920007F0D0
:10357000C7FA21008000FFF741FFFFF729FD220075
:103580000023C83213605360D034CFE70300D73331
:103590001B78144E3370D9E7174B12889A4201D02A
:1035A000002092E72300D9331A78013B1B781202DE
:1035B0001343210022006068D632D7314568127863
:1035C00009782000A8470028EAD023004268C833C1
:1035D0001A600268D0345A600023A7E7D10F002098
:1035E00000090020B40F0020E8140020FD35001071
:1035F00040420F00E703000081060000DA30084A6D
:1036000001781378022907D1012B01D0062B02D1B2
:103610005278044B1A707047024A1370FBE7C04699
:10362000E8140020D00F00200F2230B507490C7895
:10363000631C1340064A157800229D4203D0054AB8
:103640000B7010550122100030BDC046880F0020BD
:10365000890F0020780F00207047000009020A43FC
:1036600011B2120A032A12D006D8012A26D0022A41
:1036700027D00023180012E0212A17D0222AF8D1DF
:10368000002B25D0012BF4D17B23134807E0CBB2CC
:10369000022BEED8114A99008858114AD35C114A7E
:1036A00050601360002800D010007047002B0BD032
:1036B000012BDED10C4809232B30F0E712230B48F5
:1036C000EDE73B230848EAE7074809231230E6E71D
:1036D00040230748E3E7C046ABAF001098AE0010A8
:1036E000A4AE0010B80E0020DCAE001017AF001022
:1036F00029AF001070B5FFF774FC144B144815493E
:103700009C6A0D680368144AE41AA54208D9134D4F
:103710006419134D5B190360136812481B1813607A
:1037200015680C60FFF754FCFA2200239200200079
:10373000002107F0DDF900230B4A801859410B4A9C
:10374000002307F0DDF9281870BDC0460040054091
:1037500090150020FC0F00207012002080C20E0087
:10376000803DF1FF708541003F420F0040420F0055
:1037700001220023F0B55242851CEC5C5EB28C4203
:103780000BD0571C02D1002C00D132000133062B84
:10379000F3D1531C01D080188170F0BD0A4B13B5D2
:1037A0001A8882420ED01880084B1968002909D067
:1037B000042301AA13706B465871000A9871CB68F4
:1037C0001000984713BDC046DE0F0020280F0020D0
:1037D0000A4B13B51A8882420ED01880084B19681C
:1037E000002909D0032301AA13706B465871000AFF
:1037F0009871CB681000984713BDC046F40F0020A5
:10380000280F002070B5030041183125FF2008243F
:103810001A78504046B24200D0B2002E01DA6A4017
:10382000D0B2013C002CF5D101338B42EFD170BDF9
:10383000144BFA21D868144B10B51B688900DB00C3
:10384000D8400F231840114B01305843104B9C6A4D
:1038500007F046F919340F4BFF3400191860FFF7D1
:10386000C0FB0D4B9A6801329A60002A07DC186889
:10387000026853601A6000238361FFF769FCFFF759
:10388000A7FB10BD00002050C408002030750000C8
:1038900000400540880A0020C808002010B5002814
:1038A00001D0904710BD8847FCE770470022034BCA
:1038B00099785A7004320A439A707047E0140020D5
:1038C0000122824010B5094B1000DA7814008443BD
:1038D000002901D00243D4B210229978DC700A4347
:1038E0009A700122024B1A7010BDC046E0140020ED
:1038F000B60E00200A4A012113781800884309D126
:103900000B4049180B431370D378782B01D97823D7
:10391000D37070474D2BF7D90B404C21F2E7C046CE
:10392000D4140020F8B51E00254B07000D009C5C48
:10393000002941D00620FF21784307F0C9F855231C
:103940005B4243437F00FF1803237B43FF22DBB22C
:103950001F00D31A6F436B433F121B12511BD71B1F
:10396000D31A61436743634309123F121B12C9B262
:10397000FFB2DBB206281CD8FDF72EFA06040C11A4
:10398000161B060023003C0022001C0072703470DD
:10399000B170F8BD1A0023000C001100F4E72300F9
:1039A0000C0019003B00EFE71A000B002100140087
:1039B000EAE70B003900E7E721002200E6E7C0460E
:1039C00095AD001010B5141C782A00D97824E2B205
:1039D000FFF7A8FF10BD000010B55200054C1218EB
:1039E000091A035BDB430B5202309042F9D10120EC
:1039F00010BDC04600E01F1010B5EFF3108372B683
:103A0000044C236007F054F8236883F310880120E6
:103A100010BDC0468C0F0020044A054B0220D15C2B
:103A2000002902D000210138D1547047DC15002054
:103A300004100000044A054B0220D15C002901D18A
:103A40000138D0547047C046DC1500200410000037
:103A5000F0B58FB0FFF7EEFF0B90EFF3108372B667
:103A60008022FF20324E334F1201310040033B6071
:103A700007F04EF83B6883F3108880200021B4469D
:103A80002D4A2E4B40016646775C1D0057403B0295
:103A9000099300233C0008933A002B0012196B4154
:103AA0003F0F2E013E43019626010096009E019F86
:103AB00092197B4112196B41E70E6E013E4303964A
:103AC00066010296029E039F92197B41670EEE01EA
:103AD0003E430596E6010496049E059F92197B419C
:103AE000270E2E023E43079626020696069E079F45
:103AF00092197B41089E099F013192197B418142B5
:103B0000C1D10C920D93EFF3108372B6094C0422CD
:103B10000CA90B48236006F0FBFF236883F3108891
:103B20000B9B012B01D1FFF777FF02200FB0F0BDF7
:103B3000DC1500208C0F002025232284E49CF2CB8E
:103B400000F01F0070B58024084D6401084B2A590D
:103B500001209A4209D9FFF74FFF0300002083425A
:103B600003D0FFF775FF034B2B5170BDDC15002010
:103B7000FF1F00000810000073B580246A460C4D3A
:103B80006401911D2B590880EFF3108272B6094E23
:103B90003260FF2252039818012206F0B9FF336801
:103BA00083F310882B5902332B51FFF7CBFF76BDDF
:103BB000DC1500208C0F002010B5FFF79BFD83B2B1
:103BC0000A488278C1780A4301D0094A13800279F1
:103BD00041790A4301D0074A1380074B1B68002B29
:103BE00003D002229B680270984710BD6412002027
:103BF0000010002002100020280F0020022210B523
:103C0000364B9A56CD280AD1D9787F290DD9002173
:103C1000D9708A420BD10021314A117007E0CE28B9
:103C20000ED1032159560029F1DC002A0ED01A7951
:103C30005B7913435BB2002B01D12A4A137010BD8C
:103C4000CF2808D1002AF0DA00229A7003229A566F
:103C5000002AECD1DFE7D02802D1002AF4DCE4E727
:103C600004215956D92804D10029DEDD002119711B
:103C7000DBE7DA2802D10029D7DAF7E70521595620
:103C8000DB2804D10029D0DA00215971CDE7DC28E6
:103C900002D10029F8DCC8E701002F31C9B2072999
:103CA00007D80121D13881400800597881435970E3
:103CB000BBE7DD2805D101240B480178A143017041
:103CC000B3E7DE2803D1084802240178F6E7DF28AD
:103CD000ABD1054804240178F0E7C0466412002007
:103CE0006B1200206C1200206A12002010B5012413
:103CF0000F4B02211A78224214D104230A420ED11A
:103D00001A4213D10B4B187800280DD027280DD854
:103D1000C000263106F0DCFE83B2002800D0DCB201
:103D2000200010BD0B00FAE72300F8E70823F6E7B0
:103D30006A1200206C12002010B50D4B14201B7865
:103D4000DA0712D400189A070FD428305B070CD476
:103D5000084B48381B78002B07D048301D2B04D85F
:103D600058431E2106F0B4FE80B2C0B210BDC0465A
:103D70006A1200206B12002010B5CD2805D1FFF784
:103D8000DBFF4042274BD87010BDCE2802D1FFF791
:103D9000D3FFF7E7CF2805D1FFF7CEFF4042214BF5
:103DA0009870F1E7D02802D1FFF7C6FFF7E7D928CE
:103DB00004D1FFF79BFF1B4B1871E5E7DA2803D10D
:103DC000FFF794FF4042F6E7DB2805D1FFF78EFFAF
:103DD0004042144B5871D7E7DC2802D1FFF786FF29
:103DE000F7E703002F33DBB2072B07D80123D138C5
:103DF00083400C4A51780B435370C5E7DD2805D149
:103E00000123094A11780B431370BDE7DE2803D163
:103E1000054A02231178F6E7DF28B5D1024A0423C8
:103E20001178F0E7641200206A1200200020704729
:103E300010B50400FFF7D5F80123D022A3401206E5
:103E40009362064AE3009B1805225A60044BA400C3
:103E5000E4184A236360FFF7BBF810BD004001403F
:103E600000C001400020704730B5042427490A787B
:103E7000224205D018230340082B27D19843204322
:103E8000130708D51824050014232540A54225D181
:103E9000A843C0B2184301244978214206D0182310
:103EA0000340082B21D19843C0B220438B0708D58B
:103EB0001821040011230C408C421FD1A043C0B232
:103EC0001843D30601D5E723184030BD142303401F
:103ED000042BD5D1984304331843D1E70340142B66
:103EE000D9D19843C0B22043D5E711230340012B19
:103EF000DCD19843C0B207331843D7E70340112BF6
:103F0000DFD19843C0B20843DBE7C046DA0F002098
:103F100013B50A0401AB1980120E0021092A0DD82D
:103F20001C78052C0AD8052808D8062353433C22C0
:103F300042439B181B19024A5B00995A080016BDA0
:103F40000CB8001010B5040082282BD034D83128CA
:103F500000D18AE022D8292800D17CE02A2800D18B
:103F600089E0994B9C4200D9AFE0A023DB019C4241
:103F700000D317E1DF2C00D98CE0CD2C00D3DAE0A0
:103F8000A72C00D97DE0A52C00D3CCE0012C51D08A
:103F900023B2002B38D0042C36D34BE0352855D033
:103FA0003928DED1894B1A78920700D006E15B7878
:103FB0001B07D6D529243DE0E32827D00BD8E028DD
:103FC00016D0E228CDD1814B1B785A0732D5E32495
:103FD000DB0619D42EE0E62828D0E7282CD0E428E8
:103FE000BFD17A4B5A78920724D51B78E724EFE7A4
:103FF00076480121027813000B4034D14078084202
:1040000018D0E324D20615D5002413E06F4A1378A4
:10401000590700D5D0E05278D20700D5CEE0102263
:1040200013405A4253415B421C4003E0674B1B78EC
:104030001A07DBD4201C10BD644A1378190700D579
:10404000BEE052789207EAD5E424F3E75F4B1B7891
:104050009B06EFD5AEE75D4B1A78920600D5B1E02E
:104060005B781B07E6D53924E4E7584B1B785B06E1
:10407000E0D52A24DEE7554B1B785B06DAD53124E0
:10408000D8E7C02CC0D85834E4B2514B6400E05A91
:1040900088244DE04F4B9C4206D8FF2CCAD8230001
:1040A000E13B062BB0D8C5E74B4B200A9C4244D8D5
:1040B0001F231840FFF7D8FEF82300025B011840C9
:1040C000E4B204438020800133E0444B9C420DD88D
:1040D000434B9C4251D2434B9C4243D8424B9C425F
:1040E00034D31F2004402402404822E0404B9C422D
:1040F0000DD8404B1F209C424AD32040FFF7B4FE0E
:10410000F8240002640120400134FF3411E03A4BEE
:104110009C4241D9394BE318FF2B00D974E7C020EA
:10412000E4B2C00105E05B34354BE4B2185D802495
:10413000E40104437EE71C437CE7F02300021B01FB
:104140001840E4B20443A0200002F2E70323E0B2E7
:1041500084081840023B834064012A481C430443FE
:10416000A4B267E70323E0B2C4061840023B8340D1
:10417000640F64011C432448F1E70323E0B2C40642
:104180001840023B8340640F64011C431F48E6E76C
:10419000204000021E4CCCE7F820240240010440DD
:1041A0001C48C6E71F202040FFF75EFEE405240FF1
:1041B000240204431848D2E7E2243BE7E02439E72D
:1041C000E62437E7352435E7FF510000DA0F0020F9
:1041D000AAAE0010FF1F0000FF3F00007F5200004A
:1041E000605200003F52000020520000F1A0000089
:1041F000BF520000A0520000DF52000000AAFFFFE3
:10420000A7AE0010008DFFFF008CFFFF008AFFFFAC
:10421000F4A00000F0A000000090FFFF034B1A780C
:10422000002A01D000221A707047C0468F14002067
:10423000024A1378834313707047C046D815002094
:10424000024A1378834313707047C046CF1400208E
:104250000721054B054A1B7812789A4200D1704716
:1042600001330B40F9E7C046D7150020D6150020D2
:10427000F0B50F240127104B85B01A880F4B01AE03
:104280001B8830801A430092009BE5B223413B42D9
:1042900005D1013CF8D20025280005B0F0BD3288D8
:1042A00003AB1A8003992800FFF732FEFFF74AFE9E
:1042B00080B20128EDD0EFE714100020B40E0020EA
:1042C0001FB501AC20800198FFF7D2FF228803AB15
:1042D0001A800399FFF71CFEFFF734FE04B010BDEF
:1042E000F7B50024878801AE0100050002223000E6
:1042F000FCF7FAFDA74213D03288134B9A420FD035
:104300002888FFF7DDFFC3B20004000F0B2807D891
:104310000122110081400D48014203D149060CD40D
:104320002000FEBDF02B0DD003D8E7229A42644155
:10433000F6E7F43B5C425C41F2E71400E72BEFD96F
:10434000F13BF7E71400EBE7FFFF00000C0C000067
:1043500073B5030C040ADBB20090E4B2C5B2002BC3
:1043600012D0002A10D0FFF783FF0600092C06D8D0
:10437000052D04D8062161434919FEF747FB30009B
:104380000099FFF7C5FD76BD0026092CF7D8052D4D
:10439000F5D8062060434019FEF722FB0600EEE741
:1043A000411E174BFF39020010B50020994218D862
:1043B0008023802180245B00890013401140E400A9
:1043C000581E8341D0040DD51801002901D02023A7
:1043D0001843224201D040231843130501D58023FE
:1043E000184310BDD8B2002901D00223184322423D
:1043F00001D0042318431305F3D50823F0E7C04682
:10440000FF1E000070B5041E02D00021C30707D5AF
:10441000184B1A8801231900002A01D01A401100F4
:10442000012500202940FFF74BFA211E01D0611021
:1044300029400120FFF744FA211E01D06107C90F6E
:104440000220FFF73DFA211E01D02107C90F0320EA
:10445000FFF736FA211E01D0E106C90F0420FFF74D
:104460002FFA211E01D0A106C90F0520FFF728FA57
:10447000200070BDB40E002010B5FFF7C3FF014B44
:10448000188010BD141000200123834010B5034A8A
:1044900010889843FFF7F0FF10BDC04614100020AD
:1044A000002370B50A4D0724EB561A00824350B220
:1044B000287004400BD1DBB2834208D0054B5B78F7
:1044C0005B0704D5C010C0B2FFF7DEFF2C7070BDD3
:1044D0008E140020DA0F002001238340034A10B518
:1044E0001088184380B2FFF7C7FF10BD14100020DA
:1044F0008B1C9B0070B5C318050050690E0014009A
:104500005A60002803D020220021FEF75DF8A06940
:10451000002803D020220021FEF756F831002800A1
:10452000FEF784FC70BD000010B5040005291DD8FD
:104530000800FCF751FC191B0319191CFEF751FD6B
:104540000C4A01212000FFF7D3FF0B4A0221200073
:10455000FFF7CEFFFEF73CFD084B1B78002B02D087
:104560000520FFF761F80220FFF75EF810BD052077
:10457000FAE7C046F0B7001004C10010EF0F0020AA
:1045800070B58024044D6401280022000021FEF74C
:104590001BF8024B2B5170BDDC15002008100000E9
:1045A00070B5FFF747FA0400051E03D1FFF734FA90
:1045B000200070BDFFF720FA0400FFF7E1FF012D96
:1045C000F6D1FFF729FA431E98410440F0E7F7B50A
:1045D000170001220231890041184B685C6922757D
:1045E000216822691B8A8D1A9D4200D91D00002373
:1045F000180052198A425841226182030092A17D1B
:10460000AEB20800421E90414203019201224A408C
:10461000A275A0699F4200D0A38BC0182A00A16890
:10462000FCF762FC8420A36800025D19009B304304
:104630001843019BA56003431800002F00D0180405
:10464000FEBD00008B1C9B00C3185B68F7B506001D
:104650000C1E5F6924D11A4BDB6C00222100300054
:104660000193FFF7B4FF3A683B6905009A4205D011
:10467000012221003000FFF7AAFF05436B0113D58B
:10468000104A019B13401A00A023DB051343002CA2
:1046900011D10B4AD3640C4B1034E4001D51F7BD0B
:1046A000094ACB00D358D8E7084A019B13401A00A7
:1046B00080239B05EAE70449E2008B50EBE7C04604
:1046C00000001150FFFFFFDF00001050FFFFFFAFA1
:1046D00070B501258D4004892C4304818C1CA400F5
:1046E00004196468646923600023A2606360E36066
:1046F0002361FFF7A7FF70BD70B50600C43632789E
:104700000400152A16D8012393401A4A134220D1D7
:1047100080256D031D400ED19B020BD50B233370FA
:10472000FEF75FFC2B002A0029002000FFF7D0FFD6
:10473000FEF74EFC70BDC3689B695B68002BF9D126
:104740000300D0331B68002B00D098470023337040
:10475000F0E70021FEF7A4FA00212000FEF7C0FADE
:1047600063681B68002B02D00621200098470623AF
:10477000EDE7C046410E000070B50500C4350400E9
:104780002878152834D8FCF727FB3D3333333333EF
:104790003D33330B283433333333333333333D3DFD
:1047A0002300CC33DA7B18680E331B7812021343D4
:1047B000984212D2E368198A06F082F90E1E0CD1D3
:1047C000FEF70FFC3300320031002000FFF780FFBE
:1047D000FEF7FEFB0A232B700AE014232B70FEF772
:1047E00000FC002220001100FEF7E2FAFEF7F0FBC9
:1047F00070BD2300D0331B68002B01D020009847E8
:104800000023E8E700212000FEF74AFA00212000FB
:10481000FEF766FA63681B68002B02D006212000B1
:1048200098470623D7E7000070B50C00FEF7D9FBC8
:104830002378042B02D0FEF7CBFB70BD124D2B78F2
:10484000002BF8D0114B1B78002BF4D023899B0749
:1048500005D408230E4A01212000FFF739FF2878EC
:104860000C4A0023002106F043F900230A4A80186D
:104870005941FA220023920006F042F921008000FB
:10488000FEF7BCFDD7E7C046B40F002000090020AA
:10489000D10F002040420F00E7030000030070B575
:1048A00080249D18080064010021A54204D8034912
:1048B0005918FCF719FB0121080070BDDC15002018
:1048C00013B56B46DC1D0023012221002370FFF786
:1048D000E5FF207816BD10B51720FFF7F1FF01386E
:1048E00043425841C0B210BDF7B504000D00160098
:1048F000FFF7F1FF002828D02800FCF7ABFA041CD2
:104900003000FCF7A7FA124B01901878FCF70EF96B
:104910001049FBF719FD071C701BFCF79BFA011CE3
:10492000381CFBF729FE011C0198FBF73BFF051C17
:10493000011C201CFCF760F9002804D0201CFBF7A8
:10494000EBFCC0B2FEBD281CF9E72078FAE7C046B0
:104950009415002000004843F8B5050001200A2DF9
:1049600002D00D2D03D1002000F052F8F8BD06262C
:10497000204F32003C6820482100FCF7B5FADF2DBB
:1049800030D9320000212000FDF71EFE2100062252
:104990001948FDF7C9FF194D631B9CB200280CD0C4
:1049A000012123000E006209053396405B099940FE
:1049B00013480288324311430180124B06341E789B
:1049C000A4B23100200006F06BF8761AF6B2052E7C
:1049D00001D8A419A4B20C4B9C4200D900242C1974
:1049E0003C60C3E775430949320069182000FCF7B1
:1049F0007BFACBE778140020821400207612002086
:104A00007C14002080140020FF01000034B200104C
:104A1000F7B5154E154A336807009C1A144BA5B21A
:104A20001B7828001900019306F03AF8019B581AE8
:104A3000C0B2002F0CD0062106F052F8C4B2013CDF
:104A4000E4B2FF2C00D1F7BD2020FFF785FFF6E789
:104A5000084B4519A4B29D4201DD38003C00034BD0
:104A6000201818183060EEE7781400207612002025
:104A700080140020FF0100008023F0B5160089B0EB
:104A80008218050001915B019A4203D9002420009D
:104A900009B0F0BD5D4F3200C71939000198FDF72C
:104AA00043FF01240028F2D0320001993800FCF7BE
:104AB0001BFAFEF7BFFF0590002802D1FEF7ACFFFE
:104AC000E4E7019B1A78012E33D9EB0731D4504B20
:104AD0009D422ED8019B5B781B021343012B28D8E3
:104AE0005A1E934120225B421340803B6A0A1343C3
:104AF000FF220499DBB291430A001A4304920499FD
:104B00006B08444ADBB21B020A401A436B4604920C
:104B1000188AFFF731F80400012867D1019B023E93
:104B2000023502330193002ECBD1FFF70BF80400BE
:104B300061E03F2D18D8FF210398402388430100EE
:104B40002B43DBB21943334B12020B401343039345
:104B50006B469889FFF710F80400012846D1019BA5
:104B6000013E01350133DDE70296052E01D905230B
:104B7000029306AF06220021B81CFDF725FD07228F
:104B80002B0C1340029ABD70D20013433B702B0ACA
:104B90007B7000230199DA19C95C0133D170029A44
:104BA0009A42F7D13888FEF7E7FF040001281DD1AB
:104BB0007888FEF7E1FF0400012817D1012E07D9FC
:104BC000B888FEF7D9FF040001280FD1032E07D8BB
:104BD000029A029B9446F61AED18019B6344A1E7E2
:104BE000F888FEF7C9FF04000128F1D0002C02D09C
:104BF000022C00D00024059B012B00D047E7FEF7D4
:104C00000BFF002800D141E741E7C046DC1500203A
:104C1000FF3F0000FF00FFFF002337B50D00042217
:104C200001A901930400FFF739FE019B9D4205D0C5
:104C3000042201A920000195FFF71EFF37BD10B522
:104C40000400FEF757FE21000820FFF7E5FF10BD26
:104C500010B5054A1379002B01D0013B1371106880
:104C6000FFF7EDFF10BDC046D414002010B5054A73
:104C70001379022B01D8013313711068FFF7DFFF9E
:104C800010BDC046D41400200022064B064810B5C3
:104C90001A7118600323054A91780B439370FFF74C
:104CA000CEFF10BDD41400200300FF78E0140020D4
:104CB00073B56B469C1D00230E0002222100238049
:104CC0000500FFF7EBFD23889E4205D0022221005C
:104CD00028002680FFF7D0FE73BD00000A4910B5FA
:104CE0004B785A07D20F82420CD001220240042096
:104CF0009200834313434B700988FFF7D9FF0220CA
:104D0000FFF7CEFB10BDC046DA0F002037B50D000F
:104D10000400FFF7D5FDA84206D06B460122D91D3D
:104D200020000D70FFF7A8FE37BD000010B5FFF79B
:104D300037FC20490020FFF7BBFF00210220FFF7CE
:104D4000E5FF00210320FFF7E1FFA02100241A4B1B
:104D5000490104201C80FFF7ABFF21000620FFF76C
:104D6000D5FFFF210720FFF7D1FF21000820FFF723
:104D700053FF21000D20FFF7C9FF21001820FFF786
:104D80004BFF21001720FFF7C1FF21001C20FFF778
:104D900043FF21002020FFF78BFF21001820FFF7A1
:104DA0003BFF21000F20FFF737FF21001320FFF703
:104DB00033FF10BDE7FE0000B40E002070B5184BA5
:104DC000184A1B781278184C1343184A237012782B
:104DD000002A10D01343237000231A00A1188978E9
:104DE000002901D00133DBB20132062AF6D1002BB3
:104DF00001D0FFF713FA0E4D082229002000FDF71D
:104E000093FD00280BD0082221002800FCF76CF845
:104E1000084B1B68002B02D05B682000984770BDD0
:104E2000CF140020D8150020C00C00208F140020C3
:104E3000E70F0020280F0020036910B50400002BA5
:104E400001D041699847E078FFF7F2F92079FFF740
:104E5000F7F9FFF7B3FF062200212000FDF7B4FBAE
:104E600010BD0000427910B50400930714D402234A
:104E700013430E4A43711178C3780B4313700C4AE5
:104E8000037911780B431370FFF798FFE368002B49
:104E900002D06169200098470022064B1A8063798E
:104EA000DB0702D42000FFF7C7FF10BDD815002094
:104EB000CF140020D00C002070B500240625104827
:104EC000104B2A00210002301C70FDF77DFB2000F2
:104ED000FEF77EFC2000FEF761FC0B4B1C70FFF719
:104EE0006DFF2A0021000948FDF76EFB084B1C707E
:104EF000084B1C70084B1C70FEF75EFE70BDC04670
:104F0000C00C0020CF140020D8150020641200200F
:104F10006B1200206C1200206A12002010B50028CD
:104F200003D0FFF78DF9FFF749FF10BD10B500283A
:104F300005D0034B1A7810431870FFF73FFF10BDE0
:104F4000CF14002010B5002811D0031FDBB2A02B16
:104F50000ED8062300211B4A9478844200D1917018
:104F6000013BDBB20132002BF6D1FFF727FF10BD6A
:104F700003002033DBB2072B07D8072303400120AF
:104F80009840C0B2FFF75CF9EFE703005B33DBB298
:104F9000022B03D80020FEF71BFCE8E70300583380
:104FA000DBB2182B03D80020FEF7F8FBDFE7030085
:104FB0003333DBB2122BDAD8FEF720FEFEF7FCFD0E
:104FC000D5E7C046C00C002070B5041E12D0031FE8
:104FD000DBB2A02B1ED80023254DEA189278A242FE
:104FE00009D00133062BF8D121002800FEF7C0FBC1
:104FF000FFF7E4FE70BD2A00062300219078A0424E
:1050000000D19170013BDBB20132002BF6D1FFF7EA
:10501000D5FEE9E703002033DBB2072B08D80723CE
:105020001C40063BA340134A11780B431370DFE783
:1050300003005B33DBB2022B04D80F4AD05CFEF7CF
:10504000C7FBD7E703005833DBB2182B05D80B4A50
:105050005B00985AFEF7A2FBCCE703003333DBB2C8
:10506000122BC7D8FEF788FEFEF7A6FDC2E7C046A2
:10507000C00C0020CF140020A7AE0010AAAE001074
:1050800010B50400C0B2FFF75DFF2000FFF788F9FC
:105090002300E03B072B01D9002C02D1FFF73EFF94
:1050A00010BD0028FCD0FFF7C3F8FFF787FEF7E735
:1050B00010B50400FFF774F92300E03B072B01D97A
:1050C000002C05D1FFF732FFE0B2FFF77DFF10BDE6
:1050D0000028F9D0034B1A7810431870FFF76EFEC2
:1050E000F2E7C046D815002010B50888FFF7E0FFAA
:1050F00010BD70B584780500022C05D14888FFF7F3
:10510000D7FF6B791C436C7170BD70B50400FDF75F
:1051100033FC2518A54200D870BD2078FFF71CFC91
:105120000134F7E710B5FFF7F0FF0120FFF770FC3F
:1051300010BD0000D0231B061A68084B92009B1874
:105140005B6810B5D9680875186802681A60536002
:1051500001220275D860FBF7B9F810BD680E002077
:105160000A00D02109060B6830B5040012489B00E4
:10517000C3185B6887B0DD68531C18D00B6869469C
:105180009B00C0180D4B406803930023103005931B
:105190000495FEF711F92000FFF7CCFF009B002BD0
:1051A00002D06846FEF74CF8A86907B030BD200071
:1051B000FFF7C0FFF8E7C046680E00200D31001071
:1051C0000C4A10B512780C4C2378002A02D1012029
:1051D00058400AE0002B0AD06423022207497820B5
:1051E00005F0D8FB002801D0207810BD207023786E
:1051F000EDE7C0467E14002075120020EAB10010D1
:105200000E4B70B51B780E4D2C78002B10D0FEF78E
:1052100071FA0C4BC0180C4B1860002C07D164239A
:1052200002220A49782005F0B5FB002802D02C782C
:10523000200070BD01232B70F9E7C0467E140020CA
:105240007512002060EA000088140020ECB1001004
:10525000F8B51F0006AB05001C88002A0ED00C23F1
:105260001E006E431348365C964200D232006B43F8
:10527000C3185B881048C018FBF736FE280005F0FD
:105280008BF8061E13D0002C11D00C231A006A4391
:1052900008498A1810792200A04200D202005D431A
:1052A0004D19EB8804493800C918FBF71DFE300082
:1052B000F8BDC046080900200C150020F0B589B0E3
:1052C00005AC2000124B134D06CB06C0042229006A
:1052D000FBF70AFEA37A104E03933768FEF70AFA2B
:1052E000C71B632F02D8039B002B0BD000230C227B
:1052F000009321000520FFF7ABFF002805D0FEF743
:10530000F9F9306000230120AB7009B0F0BDC04650
:10531000D4140020E014002010100020F0B50F2558
:1053200087B0029302ABED1816000123002203910F
:10533000009311002B00FFF78BFF041E26D0376867
:10534000FEF7D8F9C71B632F06D80D990C98FEF706
:1053500059FA2B78834219D000220D9B11009BB281
:1053600000930398029BFFF773FF0D9907000C98B9
:10537000FEF748FA2B781B1A5C425C413C4002D095
:10538000FEF7B8F93060200007B0F0BD0D9A0C9917
:105390000298FBF7A9FDF6E7F0B505240D4B85B0A3
:1053A000013300930D00019402AB0B4A0121002050
:1053B000FFF7B4FF094F061E04D0220002A93800EF
:1053C000FBF792FD052239002800FBF78DFD300028
:1053D00005B0F0BD0C15002004100020E10F0020E6
:1053E000064B8000C018036809015940302319405A
:1053F00080235B01184301607047C04604C0014030
:10540000F0B501258D400468AC43046018244C437A
:1054100004192500C835002B2AD01E682E605E684E
:105420006E609E68DB68AE60DC34236018244C43F9
:1054300025008023D03545195B012B4380252D069F
:105440001D601D600F4B0D1D8B40836001231F00ED
:10545000AF403D0008318B40066835430560056864
:105460002B4303601F2300191A40D8300260F0BD9F
:10547000802676022E60F82676026E60C0263603FD
:10548000AE60D1E701010101F7B5009008A80778E7
:10549000182004004C43009D84462C192500DC355F
:1054A0002E68781E874101961F267F423E400F4F8F
:1054B0003E435701052B0DD8604648439B061F43CA
:1054C000009B019A18180300D830DC331F60066077
:1054D0001A60F7BDA0204005384328602000D8306E
:1054E00006601F200532053B0240E2E780E0000035
:1054F000F0B51D0018234B43C3181E0004000F0015
:1055000085B0DC360292326803930192002D07D1F8
:1055100018235F43019BE419DC34236005B0F0BD20
:105520002800FBF777FC80234201DB041343336040
:10553000029B0122C3401A40E0231B021343039A3B
:10554000D83213606B1E1D40E0E70000F0B585B057
:10555000EFF31083039372B62E4B1A68002AFCD027
:10556000BFF35F8F2C4B0524C3185A425A412B4B73
:1055700002929200D65801230F790C57BB40202588
:10558000013B002C0ADB2200ED1BAC4203DC1D00BA
:10559000A5402E4222D02248FDF752FFEA1B002AE6
:1055A000F9DB1D0095402E4218D0013AF7E74D78FF
:1055B0000B782D021D438B781B042B43CD782D06D1
:1055C0001D4363005B5B9C465D0B00D194446346C6
:1055D00015191235AD002B50013408E0002C01DB09
:1055E000A242D8D193401C0001933440D3D1BC4295
:1055F000DDD3029B09499800019B33434350BFF31D
:105600005F8F002303490B60039B83F31088100016
:1056100005B0F0BD2C0100D00000D0AFC80C0020B8
:1056200044BC00101C4BF7B5C018434243419B00DB
:10563000DA1C0192EFF3108672B6184A1700106850
:105640000028FCD0BFF35F8F012218009446144D50
:105650002C78019A824202D20120404205E0624643
:10566000824022420ED122432A70BFF35F8F002274
:105670003A6086F31088421C06D1002904D00948FC
:10568000FDF7DEFE0130E4E7834201DCC01AFEBD17
:1056900001204042FBE7C0460000D0AF2C0100D003
:1056A000780E002055BC0010014B8000C058704798
:1056B0007C0E002070B5FDF794FCD0231B061A6801
:1056C0001A4B92001A4E9B185B68B468DD68002C78
:1056D00014D12B6AB560F3602E6223E0A360237DB2
:1056E000002B10D0062B15D123686268A069210019
:1056F00013605A60FDF7DEFCA3699C68AB68A26882
:105700009342EBD806E062682368200013605A6079
:10571000FDF71EFD30002900FDF7CCFCAE61062030
:10572000FFF708FDFDF754FC70BDC046680E002071
:10573000B4080020704770470120704710B5014839
:10574000FDF77EFEF9B0001010B50148FDF778FEB8
:10575000F4B000100120704710B514000021582249
:105760002000FCF731FF80239B010020636010BD07
:1057700070B50D000600FDF734FC0B4B1C685A6831
:105780006519954206D9FDF723FC0C2301243360EB
:10579000644206E0AC42F6D81D60FDF719FC002C0F
:1057A000F3D0200070BDC046600E0020002070477E
:1057B0001800704700207047162303600120404204
:1057C000704700000322F0B5FF26C0250240D2003A
:1057D0009640890191400A4F83089B00DB19AD0078
:1057E0005C591F22B4430C435C5101230240934097
:1057F000C02240098000C019520083500360F0BDF0
:1058000000E100E08020164A4004136810B503430D
:105810001360FDF7D3FB8022124CD201002120003F
:10582000FCF7D2FE8022002152010F48FCF7CCFE8B
:10583000092363670333A367FDF796FB0123236402
:1058400080239B05E364094B903423608023226806
:105850009B021343236003210520FFF7B3FF10BD14
:1058600000C00040000011500000105010D0010096
:10587000F7B50400FDF7B5FB2378012B45D02000D8
:10588000FDF7BAFB00282AD0234E244AB36AE56903
:105890000193636864271B68934204D9204A4B3FF5
:1058A000934200D90F3F00232B63EA6E0133134369
:1058B000EB660223EA6E1343EB66FDF789FB402299
:1058C0006B6B134208D1FDF78CFBB36A019A9B1AEC
:1058D000BB42F2D3FDF77CFBFDF783FB6B6D114BF5
:1058E0009C4212D1802210495204CA67C021FF2075
:1058F0000E4B49005A509931FF315A5882435A5041
:1059000010230B4A11680B431360002363600133BB
:105910002370FDF75DFBF7BD00400540A086010048
:10592000801A0600A42A002004E100E000E100E063
:1059300000C00040F0B504000D0085B0FDF751FB3C
:1059400023786560E569012B09D1344B9C4206D16F
:105950001020FDF733FB02211820FFF733FF200052
:10596000FDF74AFB00284AD12D4BE6692B6063689E
:10597000A8631B68E8630093009A2A4B9A4245D9B2
:10598000294B9A4246D98227FA237F005B00019374
:10599000264B2449586905F0A3F82549039078431C
:1059A00005F09EF8019B0290471C009921485F4337
:1059B00005F096F864235843019BC11A380005F09E
:1059C0008FF807000320039B009A58431A4B642169
:1059D0009A4200D9FA2105F083F8029B0222063B85
:1059E000F3613300A03337621A60F36F0130C0B245
:1059F00018430023F0672B630133EB662B6C022303
:105A00002370FDF7E5FA002005B0F0BDFA270B4B37
:105A10003F01BCE796270A4BBF00B8E7A42A002045
:105A200065050000A0860100801A06007C0E00209B
:105A300010270000809698003F420F005C12000083
:105A400014050000BFF35F8FD023BE221B06520057
:105A50009B50704710B50F3018D0FDF7C2FAEFF326
:105A60000983203B83F3098880225204DA61D02223
:105A700012061168074A8900521852681168D268E4
:105A800089689268914202D9034A9A6110BD034A1B
:105A9000FBE7C046680E0020FF0200100203001062
:105AA0000822074B10B55A63064B7446DB68002B7F
:105AB00001D0032098472000FFF7CCFF10BDC0465F
:105AC00000400540481500200422074B10B55A63DA
:105AD000064B74469B68002B01D00220984720009B
